:100000000C9462000C948A000C948A000C948A0070
:100010000C948A000C948A000C948A000C948A0038
:100020000C948A000C948A000C948A000C948A0028
:100030000C948A000C948A000C948A000C948A0018
:100040000C948F040C948A000C945D040C94370477
:100050000C948A000C948A000C948A000C948A00F8
:100060000C948A000C948A000000000024002700F1
:100070002A0000000000250028002B0000000000DE
:1000800023002600290004040404040404040202DA
:100090000202020203030303030301020408102007
:1000A0004080010204081020010204081020000012
:1000B0000008000201000003040700000000000027
:1000C0000000D90411241FBECFEFD8E0DEBFCDBFA2
:1000D00011E0A0E0B1E0E4EFF1E102C005900D9283
:1000E000A434B107D9F721E0A4E4B1E001C01D9226
:1000F000A03FB207E1F710E0C2E6D0E004C02197CC
:10010000FE010E94F208C136D107C9F70E941A0504
:100110000C94F8080C940000AF92BF92CF92DF923B
:10012000EF92FF920F931F93CF93DF936C017B01AC
:100130008B01040F151FEB015E01AE18BF08C0173D
:10014000D10759F06991D601ED91FC910190F081B0
:10015000E02DC6010995892B79F7C501DF91CF9173
:100160001F910F91FF90EF90DF90CF90BF90AF90D5
:100170000895FC01538D448D252F30E0842F90E0AD
:10018000821B930B541710F0CF9608950197089592
:10019000FC01918D828D981761F0A28DAE0FBF2F5B
:1001A000B11D5D968C91928D9F5F9F73928F90E0B1
:1001B00008958FEF9FEF0895FC01918D828D981720
:1001C00031F0828DE80FF11D858D90E008958FEF5D
:1001D0009FEF0895FC01918D228D892F90E0805C26
:1001E0009F4F821B91098F73992708958DE491E0A9
:1001F0000E94EA0021E0892B09F420E0822F089573
:1002000080E090E0892B29F00E94F60081110C9487
:1002100000000895FC01A48DA80FB92FB11DA35AA9
:10022000BF4F2C91848D90E001968F739927848F16
:10023000A689B7892C93A089B1898C918370806439
:100240008C93938D848D981306C00288F389E02DDA
:1002500080818F7D80830895EF92FF920F931F938B
:10026000CF93DF93EC0181E0888F9B8D8C8D981369
:100270001AC0E889F989808185FF15C09FB7F89475
:10028000EE89FF896083E889F989808183708064C1
:1002900080839FBF81E090E0DF91CF911F910F910C
:1002A000FF90EF900895F62E0B8D10E00F5F1F4F1B
:1002B0000F731127E02E8C8D8E110CC00FB607FC2A
:1002C000FACFE889F989808185FFF5CFCE010E94B8
:1002D0000A01F1CFEB8DEC0FFD2FF11DE35AFF4F1B
:1002E000F0829FB7F8940B8FEA89FB898081806246
:1002F000CFCFCF93DF93EC01888D8823B9F0AA8903
:10030000BB89E889F9898C9185FD03C0808186FDD0
:100310000DC00FB607FCF7CF8C9185FFF2CF80811F
:1003200085FFEDCFCE010E940A01E9CFDF91CF9189
:100330000895833081F028F4813099F08230A9F05B
:1003400008958730A9F08830C9F08430B1F48091E5
:1003500080008F7D03C0809180008F778093800024
:10036000089584B58F7784BD089584B58F7DFBCFC4
:100370008091B0008F778093B00008958091B00095
:100380008F7DF9CFCF93DF93282F30E0F901E2552D
:10039000FF4F8491F901E656FF4FD491F901EA57D6
:1003A000FF4FC491CC23A1F081110E949901EC2F41
:1003B000F0E0EE0FFF1FE458FF4FA591B491EC91D0
:1003C000ED2381E090E009F480E0DF91CF91089582
:1003D00080E090E0FACFEF92FF921F93CF93DF93EC
:1003E00010E0C7E0D0E083E7E82EF12C8091EA012D
:1003F0000E94C2010197D1F7C7010197F1F78091DF
:10040000EA010E94C2018130910561F40C2E01C005
:10041000880F0A94EAF7182B8091EA010E94C20122
:10042000892BD1F7219710F7812FDF91CF911F9161
:10043000FF90EF9008951F93CF93DF93282F30E024
:10044000F901E255FF4F8491F901E656FF4FD4912F
:10045000F901EA57FF4FC491CC23A9F0162F81115F
:100460000E949901EC2FF0E0EE0FFF1FEE58FF4FB6
:10047000A591B4918FB7F894EC91111108C0D09563
:10048000DE23DC938FBFDF91CF911F910895DE2B88
:10049000F8CFCF93DF9390E0FC01E656FF4F249115
:1004A0008A579F4FFC0184918823D1F090E0880FF8
:1004B000991FFC01E859FF4FA591B491FC01EE583A
:1004C000FF4FC591D49161110EC09FB7F8948C91E4
:1004D000E22FE0958E238C932881E223E8839FBF4F
:1004E000DF91CF9108958FB7F894EC91E22BEC93C4
:1004F0008FBFF6CF3FB7F8948091450190914601A8
:10050000A0914701B091480126B5A89B05C02F3F97
:1005100019F00196A11DB11D3FBFBA2FA92F982F29
:100520008827BC01CD01620F711D811D911D42E024
:10053000660F771F881F991F4A95D1F708958F92EC
:100540009F92AF92BF92CF92DF92EF92FF92CF93A2
:10055000DF93C82F6A017B010E947A024B015C0184
:10056000C80CD91CEA1CFB1CD0E08091EA010E9457
:10057000C2018C179D0759F00E947A02C616D70651
:10058000E806F90690F76FEF7FEFCB0106C00E94F7
:100590007A02681979098A099B09DF91CF91FF9046
:1005A000EF90DF90CF90BF90AF909F908F90089585
:1005B0008F929F92AF92BF92CF92DF92EF92FF9273
:1005C0004B015C010E947A026B017C010E947A025D
:1005D0006C197D098E099F09683E7340810591055C
:1005E000A8F321E0821A9108A108B10888EEC80E8C
:1005F00083E0D81EE11CF11C81149104A104B10414
:1006000029F7FF90EF90DF90CF90BF90AF909F9031
:100610008F900895FC0101900020E9F73197AF0118
:10062000481B590BBC018DE491E00C948C008F9217
:100630009F92AF92BF920F931F93CF93DF93CDB74B
:10064000DEB7A1970FB6F894DEBF0FBECDBF19A2DB
:10065000423008F44AE08E010F5D1F4F842E912C2A
:10066000B12CA12CA50194010E94D008E62FB9015C
:10067000CA01EA30F4F4E05DD801EE938D01232B3A
:10068000242B252B79F790E080E0109719F0CD010D
:100690000E940A03A1960FB6F894DEBF0FBECDBF2D
:1006A000DF91CF911F910F91BF90AF909F908F904E
:1006B0000895E95CE1CF4F925F926F927F928F92A3
:1006C0009F92AF92BF92CF92DF92EF92FF920F93E1
:1006D0001F93CF936B017C01742EAC019B010E9490
:1006E000CB08882399F082E191E0CF911F910F917F
:1006F000FF90EF90DF90CF90BF90AF909F908F9042
:100700007F906F905F904F900C940A0346015701C1
:10071000E894B7F82FEF3FEF4FE75FE7C501B4016B
:100720000E94CB0881110DC02FEF3FEF4FE75FE72D
:10073000C501B4010E94010718161CF486E191E07E
:10074000D4CF2FEF3FEF4FE75FE4C701B6010E9420
:10075000590818161CF48AE191E0C7CF2FEF3FEF3C
:100760004FE75FECC701B6010E94010787FDF3CF99
:1007700020E030E0A901C701B6010E94010710E0A6
:1007800000E087FF0AC06DE28DE491E00E942C0139
:100790008C01F7FAF094F7F8F094C0E060E070E0B4
:1007A00080E09FE37C1641F020E030E040E251E43D
:1007B0000E940607CF5FF6CFA70196010E9495061B
:1007C0002B013C010E9478074B015C014AE00E942A
:1007D00017037C01E00EF11ECC23C1F1C501B40169
:1007E0000E94A7079B01AC01C301B2010E949406BD
:1007F0004B015C016EE28DE491E00E942C01E80E59
:10080000F91EC15018F120E030E040E251E4C5018A
:10081000B4010E945E082B013C010E9478074B0145
:10082000B12CA12C4AE0C501B4010E941703E80EC7
:10083000F91EC501B4010E94A7079B01AC01C301C9
:10084000B2010E9494064B015C01DBCFC701CF913E
:100850001F910F91FF90EF90DF90CF90BF90AF90DE
:100860009F908F907F906F905F904F9008951F9210
:100870000F920FB60F9211242F933F934F935F93D4
:100880006F937F938F939F93AF93BF93EF93FF9358
:100890008DE491E00E940A01FF91EF91BF91AF9129
:1008A0009F918F917F916F915F914F913F912F9188
:1008B0000F900FBE0F901F9018951F920F920FB6BA
:1008C0000F9211242F938F939F93EF93FF93E091B7
:1008D0005D01F0915E018081E0916301F09164011E
:1008E00082FD1BC09081809166018F5F8F73209184
:1008F0006701821741F0E0916601F0E0E35BFE4F93
:10090000958F80936601FF91EF919F918F912F9129
:100910000F900FBE0F901F9018958081F4CF1F92FB
:100920000F920FB60F9211242F933F938F939F93A3
:10093000AF93BF938091490190914A01A0914B01DF
:10094000B0914C013091440123E0230F2D3758F52D
:100950000196A11DB11D20934401809349019093FC
:100960004A01A0934B01B0934C01809145019091B5
:100970004601A0914701B09148010196A11DB11D0A
:100980008093450190934601A0934701B09348019D
:10099000BF91AF919F918F913F912F910F900FBE7B
:1009A0000F901F90189526E8230F0296A11DB11DE8
:1009B000D2CFCF93DF93EDE4F1E01382128288EE81
:1009C00093E0A0E0B0E084839583A683B78384E0BE
:1009D00091E09183808385EC90E09587848784EC17
:1009E00090E09787868780EC90E0918B808B81ECFC
:1009F00090E0938B828B82EC90E0958B848B86ECDD
:100A000090E0978B868B118E128E138E148ECAEE09
:100A1000D1E088E090E0998388831A821B821C824F
:100A20001D8260E00E94490261E08881DF91CF91E0
:100A30000C941B02789484B5826084BD84B5816077
:100A400084BD85B5826085BD85B5816085BD809199
:100A50006E00816080936E00109281008091810011
:100A60008260809381008091810081608093810009
:100A7000809180008160809380008091B1008460CB
:100A80008093B1008091B00081608093B00080912C
:100A90007A00846080937A0080917A0082608093EB
:100AA0007A0080917A00816080937A0080917A0048
:100AB000806880937A001092C100E0915D01F0910E
:100AC0005E0182E08083E0915901F0915A01108229
:100AD000E0915B01F0915C018FEC808310926501E5
:100AE000E0916101F091620186E08083E0915F0115
:100AF000F0916001808180618083E0915F01F091DD
:100B00006001808188608083E0915F01F0916001E5
:100B1000808180688083E0915F01F0916001808135
:100B20008F7D808300E010E02FB7F8948091490119
:100B300090914A01A0914B01B0914C012FBF40917F
:100B4000EC015091ED016091EE017091EF01841B79
:100B5000950BA60BB70B883E9340A105B10538F461
:100B6000CFEFDFEF452B462B472B09F0C5C061E0E7
:100B70008091EA010E94490260E08091EA010E94AE
:100B80001B0262E170E080E090E00E94D80261E028
:100B90008091EA010E941B0260E08091EA010E94BC
:100BA000490248E250E060E070E080E00E949F026D
:100BB0004AE550E060E070E081E00E949F024AE573
:100BC00050E060E070E080E00E949F020E94EB0134
:100BD000F82E0E94EB01E82E0E94EB01C82F0E9424
:100BE000EB01D82F0E94EB014F2D4E0D5527551FBD
:100BF0009A012C0F311D2D0F311D8217130609F09C
:100C000079C06E2D70E090E080E00E94A70720E0A0
:100C100030E048EC52E40E9406074B015C016F2D66
:100C200070E090E080E00E94A7079B01AC01C50145
:100C3000B4010E9495066B017C016D2F70E090E07D
:100C400080E00E94A70720E030E048EC52E40E94D8
:100C500006074B015C016C2F70E090E080E00E9481
:100C6000A7079B01AC01C501B4010E9495064B0189
:100C70005C012FB7F8948091490190914A01A091AD
:100C80004B01B0914C012FBF8093EC019093ED018B
:100C9000A093EE01B093EF018EE191E00E940A0370
:100CA00042E0C501B4010E945B038BE291E00E9427
:100CB0000A0342E0C701B6010E945B0386E391E0AC
:100CC0000E940A0368EE73E080E090E00E94D80280
:100CD0000115110509F428CF0E94F600882309F4B4
:100CE00023CF0E94000020CFBE01DD0F880B990B9F
:100CF0004AE017C0C4E0D0E086E391E00E940A0316
:100D000089E391E00E940A03CF3FDC0769F76DE2B7
:100D10008DE491E00E942C014AE061E070E080E007
:100D200090E00E941703CACF5058BB27AA270E9401
:100D3000AC060C941F080E94110838F00E94180895
:100D400020F039F49F3F19F426F40C940E080EF4A9
:100D5000E095E7FB0C940808E92F0E94300858F34F
:100D6000BA17620773078407950720F079F4A6F590
:100D70000C9452080EF4E0950B2EBA2FA02D0B0107
:100D8000B90190010C01CA01A0011124FF27591BD0
:100D900099F0593F50F4503E68F11A16F040A22FD6
:100DA000232F342F4427585FF3CF46953795279547
:100DB000A795F0405395C9F77EF41F16BA0B620B46
:100DC000730B840BBAF09150A1F0FF0FBB1F661F8D
:100DD000771F881FC2F70EC0BA0F621F731F841FD0
:100DE00048F4879577956795B795F7959E3F08F0F6
:100DF000B0CF9395880F08F09927EE0F97958795B8
:100E000008950E94E40708F481E008950E941A07FB
:100E10000C941F080E94180858F00E94110840F016
:100E200029F45F3F29F00C94080851110C945308E1
:100E30000C940E080E94300868F39923B1F35523EF
:100E400091F3951B550BBB27AA27621773078407DD
:100E500038F09F5F5F4F220F331F441FAA1FA9F373
:100E600035D00E2E3AF0E0E832D091505040E69561
:100E7000001CCAF72BD0FE2F29D0660F771F881FC2
:100E8000BB1F261737074807AB07B0E809F0BB0BB5
:100E9000802DBF01FF2793585F4F3AF09E3F5105C9
:100EA00078F00C9408080C9453085F3FE4F3983EE4
:100EB000D4F3869577956795B795F7959F5FC9F7B2
:100EC000880F911D9695879597F90895E1E0660F33
:100ED000771F881FBB1F621773078407BA0720F0AC
:100EE000621B730B840BBA0BEE1F88F7E095089515
:100EF0000E94380888F09F5798F0B92F9927B7516A
:100F0000B0F0E1F0660F771F881F991F1AF0BA95AD
:100F1000C9F714C0B13091F00E945208B1E00895B1
:100F20000C945208672F782F8827B85F39F0B93FA3
:100F3000CCF3869577956795B395D9F73EF4909560
:100F40008095709561957F4F8F4F9F4F0895E894DE
:100F500009C097FB3EF490958095709561957F4F01
:100F60008F4F9F4F9923A9F0F92F96E9BB279395AF
:100F7000F695879577956795B795F111F8CFFAF4BF
:100F8000BB0F11F460FF1BC06F5F7F4F8F4F9F4FF0
:100F900016C0882311F096E911C0772321F09EE84E
:100FA000872F762F05C0662371F096E8862F70E0B4
:100FB00060E02AF09A95660F771F881FDAF7880F8E
:100FC0009695879597F90895990F0008550FAA0BE4
:100FD000E0E8FEEF16161706E807F907C0F012164C
:100FE0001306E407F50798F0621B730B840B950B4F
:100FF00039F40A2661F0232B242B252B21F40895A4
:101000000A2609F4A140A6958FEF811D811D089540
:1010100097F99F6780E870E060E008959FEF80ECAB
:10102000089500240A94161617061806090608954E
:1010300000240A9412161306140605060895092EB4
:101040000394000C11F4882352F0BB0F40F4BF2B23
:1010500011F460FF04C06F5F7F4F8F4F9F4F089563
:1010600057FD9058440F551F59F05F3F71F0479559
:10107000880F97FB991F61F09F3F79F0879508953E
:10108000121613061406551FF2CF4695F1DF08C05D
:10109000161617061806991FF1CF8695710561057A
:1010A00008940895E894BB2766277727CB0197F922
:1010B00008950E94E40708F48FEF08950E947108D4
:1010C0000C941F080E94110838F00E94180820F0A4
:1010D000952311F00C9408080C940E0811240C941C
:1010E00053080E94300870F3959FC1F3950F50E0AC
:1010F000551F629FF001729FBB27F00DB11D639FCA
:10110000AA27F00DB11DAA1F649F6627B00DA11D6F
:10111000661F829F2227B00DA11D621F739FB00D15
:10112000A11D621F839FA00D611D221F749F332785
:10113000A00D611D231F849F600D211D822F762F1E
:101140006A2F11249F5750409AF0F1F088234AF0FB
:10115000EE0FFF1FBB1F661F771F881F9150504067
:10116000A9F79E3F510580F00C9408080C94530891
:101170005F3FE4F3983ED4F3869577956795B795EE
:10118000F795E7959F5FC1F7FE2B880F911D969508
:10119000879597F908950E94E407880B990B0895A5
:1011A000A1E21A2EAA1BBB1BFD010DC0AA1FBB1F6B
:1011B000EE1FFF1FA217B307E407F50720F0A21BDD
:1011C000B30BE40BF50B661F771F881F991F1A944A
:1011D00069F760957095809590959B01AC01BD0174
:1011E000CF010895EE0FFF1F0590F491E02D0994B3
:0411F000F894FFCFA1
:1011F400000000002C018C00B9007901EA00C8004D
:10120400DC006E616E00696E66006F766600746560
:101214006D70657261747572653A002068756D69E8
:10122400646974793A000D0A004572726F72204E37
:041234006F203A00ED
:00000001FF
